{
  "_format": "hh-sol-artifact-1",
  "contractName": "MrCrypto",
  "sourceName": "contracts/MrCrypto.sol",
  "abi": [
    {
      "inputs": [
        {
          "internalType": "string",
          "name": "_name",
          "type": "string"
        },
        {
          "internalType": "string",
          "name": "_symbol",
          "type": "string"
        }
      ],
      "stateMutability": "nonpayable",
      "type": "constructor"
    },
    {
      "inputs": [],
      "name": "ERC721EnumerableForbiddenBatchMint",
      "type": "error"
    },
    {
      "inputs": [
        {
          "internalType": "address",
          "name": "sender",
          "type": "address"
        },
        {
          "internalType": "uint256",
          "name": "tokenId",
          "type": "uint256"
        },
        {
          "internalType": "address",
          "name": "owner",
          "type": "address"
        }
      ],
      "name": "ERC721IncorrectOwner",
      "type": "error"
    },
    {
      "inputs": [
        {
          "internalType": "address",
          "name": "operator",
          "type": "address"
        },
        {
          "internalType": "uint256",
          "name": "tokenId",
          "type": "uint256"
        }
      ],
      "name": "ERC721InsufficientApproval",
      "type": "error"
    },
    {
      "inputs": [
        {
          "internalType": "address",
          "name": "approver",
          "type": "address"
        }
      ],
      "name": "ERC721InvalidApprover",
      "type": "error"
    },
    {
      "inputs": [
        {
          "internalType": "address",
          "name": "operator",
          "type": "address"
        }
      ],
      "name": "ERC721InvalidOperator",
      "type": "error"
    },
    {
      "inputs": [
        {
          "internalType": "address",
          "name": "owner",
          "type": "address"
        }
      ],
      "name": "ERC721InvalidOwner",
      "type": "error"
    },
    {
      "inputs": [
        {
          "internalType": "address",
          "name": "receiver",
          "type": "address"
        }
      ],
      "name": "ERC721InvalidReceiver",
      "type": "error"
    },
    {
      "inputs": [
        {
          "internalType": "address",
          "name": "sender",
          "type": "address"
        }
      ],
      "name": "ERC721InvalidSender",
      "type": "error"
    },
    {
      "inputs": [
        {
          "internalType": "uint256",
          "name": "tokenId",
          "type": "uint256"
        }
      ],
      "name": "ERC721NonexistentToken",
      "type": "error"
    },
    {
      "inputs": [
        {
          "internalType": "address",
          "name": "owner",
          "type": "address"
        },
        {
          "internalType": "uint256",
          "name": "index",
          "type": "uint256"
        }
      ],
      "name": "ERC721OutOfBoundsIndex",
      "type": "error"
    },
    {
      "anonymous": false,
      "inputs": [
        {
          "indexed": true,
          "internalType": "address",
          "name": "owner",
          "type": "address"
        },
        {
          "indexed": true,
          "internalType": "address",
          "name": "approved",
          "type": "address"
        },
        {
          "indexed": true,
          "internalType": "uint256",
          "name": "tokenId",
          "type": "uint256"
        }
      ],
      "name": "Approval",
      "type": "event"
    },
    {
      "anonymous": false,
      "inputs": [
        {
          "indexed": true,
          "internalType": "address",
          "name": "owner",
          "type": "address"
        },
        {
          "indexed": true,
          "internalType": "address",
          "name": "operator",
          "type": "address"
        },
        {
          "indexed": false,
          "internalType": "bool",
          "name": "approved",
          "type": "bool"
        }
      ],
      "name": "ApprovalForAll",
      "type": "event"
    },
    {
      "anonymous": false,
      "inputs": [
        {
          "indexed": true,
          "internalType": "address",
          "name": "from",
          "type": "address"
        },
        {
          "indexed": true,
          "internalType": "address",
          "name": "to",
          "type": "address"
        },
        {
          "indexed": true,
          "internalType": "uint256",
          "name": "tokenId",
          "type": "uint256"
        }
      ],
      "name": "Transfer",
      "type": "event"
    },
    {
      "anonymous": false,
      "inputs": [
        {
          "indexed": false,
          "internalType": "address",
          "name": "_newAdmin",
          "type": "address"
        }
      ],
      "name": "admin_add",
      "type": "event"
    },
    {
      "anonymous": false,
      "inputs": [
        {
          "indexed": false,
          "internalType": "address",
          "name": "_newOwner",
          "type": "address"
        }
      ],
      "name": "owner_change",
      "type": "event"
    },
    {
      "inputs": [],
      "name": "COST_PER_NFT",
      "outputs": [
        {
          "internalType": "uint256",
          "name": "",
          "type": "uint256"
        }
      ],
      "stateMutability": "view",
      "type": "function"
    },
    {
      "inputs": [],
      "name": "MAX_PER_USER",
      "outputs": [
        {
          "internalType": "uint8",
          "name": "",
          "type": "uint8"
        }
      ],
      "stateMutability": "view",
      "type": "function"
    },
    {
      "inputs": [],
      "name": "MAX_SUPPLY",
      "outputs": [
        {
          "internalType": "uint16",
          "name": "",
          "type": "uint16"
        }
      ],
      "stateMutability": "view",
      "type": "function"
    },
    {
      "inputs": [
        {
          "internalType": "address",
          "name": "_newAdmin",
          "type": "address"
        }
      ],
      "name": "addAdmin",
      "outputs": [],
      "stateMutability": "nonpayable",
      "type": "function"
    },
    {
      "inputs": [
        {
          "internalType": "address",
          "name": "whitelistedUser",
          "type": "address"
        }
      ],
      "name": "addToWhitelist",
      "outputs": [],
      "stateMutability": "nonpayable",
      "type": "function"
    },
    {
      "inputs": [
        {
          "internalType": "address",
          "name": "to",
          "type": "address"
        },
        {
          "internalType": "uint256",
          "name": "tokenId",
          "type": "uint256"
        }
      ],
      "name": "approve",
      "outputs": [],
      "stateMutability": "nonpayable",
      "type": "function"
    },
    {
      "inputs": [
        {
          "internalType": "address",
          "name": "owner",
          "type": "address"
        }
      ],
      "name": "balanceOf",
      "outputs": [
        {
          "internalType": "uint256",
          "name": "",
          "type": "uint256"
        }
      ],
      "stateMutability": "view",
      "type": "function"
    },
    {
      "inputs": [],
      "name": "baseURI",
      "outputs": [
        {
          "internalType": "string",
          "name": "",
          "type": "string"
        }
      ],
      "stateMutability": "view",
      "type": "function"
    },
    {
      "inputs": [],
      "name": "flipPause",
      "outputs": [],
      "stateMutability": "nonpayable",
      "type": "function"
    },
    {
      "inputs": [
        {
          "internalType": "uint256",
          "name": "tokenId",
          "type": "uint256"
        }
      ],
      "name": "getApproved",
      "outputs": [
        {
          "internalType": "address",
          "name": "",
          "type": "address"
        }
      ],
      "stateMutability": "view",
      "type": "function"
    },
    {
      "inputs": [
        {
          "internalType": "address",
          "name": "",
          "type": "address"
        }
      ],
      "name": "isAdmin",
      "outputs": [
        {
          "internalType": "bool",
          "name": "",
          "type": "bool"
        }
      ],
      "stateMutability": "view",
      "type": "function"
    },
    {
      "inputs": [
        {
          "internalType": "address",
          "name": "owner",
          "type": "address"
        },
        {
          "internalType": "address",
          "name": "operator",
          "type": "address"
        }
      ],
      "name": "isApprovedForAll",
      "outputs": [
        {
          "internalType": "bool",
          "name": "",
          "type": "bool"
        }
      ],
      "stateMutability": "view",
      "type": "function"
    },
    {
      "inputs": [
        {
          "internalType": "address",
          "name": "",
          "type": "address"
        }
      ],
      "name": "isWhitelisted",
      "outputs": [
        {
          "internalType": "bool",
          "name": "",
          "type": "bool"
        }
      ],
      "stateMutability": "view",
      "type": "function"
    },
    {
      "inputs": [
        {
          "internalType": "uint256",
          "name": "amount",
          "type": "uint256"
        }
      ],
      "name": "mint",
      "outputs": [],
      "stateMutability": "payable",
      "type": "function"
    },
    {
      "inputs": [],
      "name": "name",
      "outputs": [
        {
          "internalType": "string",
          "name": "",
          "type": "string"
        }
      ],
      "stateMutability": "view",
      "type": "function"
    },
    {
      "inputs": [],
      "name": "owner",
      "outputs": [
        {
          "internalType": "address",
          "name": "",
          "type": "address"
        }
      ],
      "stateMutability": "view",
      "type": "function"
    },
    {
      "inputs": [
        {
          "internalType": "uint256",
          "name": "tokenId",
          "type": "uint256"
        }
      ],
      "name": "ownerOf",
      "outputs": [
        {
          "internalType": "address",
          "name": "",
          "type": "address"
        }
      ],
      "stateMutability": "view",
      "type": "function"
    },
    {
      "inputs": [],
      "name": "paused",
      "outputs": [
        {
          "internalType": "bool",
          "name": "",
          "type": "bool"
        }
      ],
      "stateMutability": "view",
      "type": "function"
    },
    {
      "inputs": [
        {
          "internalType": "address",
          "name": "wallet",
          "type": "address"
        }
      ],
      "name": "removeAdmin",
      "outputs": [],
      "stateMutability": "nonpayable",
      "type": "function"
    },
    {
      "inputs": [],
      "name": "reveal",
      "outputs": [],
      "stateMutability": "nonpayable",
      "type": "function"
    },
    {
      "inputs": [],
      "name": "revealed",
      "outputs": [
        {
          "internalType": "bool",
          "name": "",
          "type": "bool"
        }
      ],
      "stateMutability": "view",
      "type": "function"
    },
    {
      "inputs": [
        {
          "internalType": "address",
          "name": "from",
          "type": "address"
        },
        {
          "internalType": "address",
          "name": "to",
          "type": "address"
        },
        {
          "internalType": "uint256",
          "name": "tokenId",
          "type": "uint256"
        }
      ],
      "name": "safeTransferFrom",
      "outputs": [],
      "stateMutability": "nonpayable",
      "type": "function"
    },
    {
      "inputs": [
        {
          "internalType": "address",
          "name": "from",
          "type": "address"
        },
        {
          "internalType": "address",
          "name": "to",
          "type": "address"
        },
        {
          "internalType": "uint256",
          "name": "tokenId",
          "type": "uint256"
        },
        {
          "internalType": "bytes",
          "name": "data",
          "type": "bytes"
        }
      ],
      "name": "safeTransferFrom",
      "outputs": [],
      "stateMutability": "nonpayable",
      "type": "function"
    },
    {
      "inputs": [
        {
          "internalType": "address",
          "name": "operator",
          "type": "address"
        },
        {
          "internalType": "bool",
          "name": "approved",
          "type": "bool"
        }
      ],
      "name": "setApprovalForAll",
      "outputs": [],
      "stateMutability": "nonpayable",
      "type": "function"
    },
    {
      "inputs": [
        {
          "internalType": "bytes4",
          "name": "interfaceId",
          "type": "bytes4"
        }
      ],
      "name": "supportsInterface",
      "outputs": [
        {
          "internalType": "bool",
          "name": "",
          "type": "bool"
        }
      ],
      "stateMutability": "view",
      "type": "function"
    },
    {
      "inputs": [],
      "name": "symbol",
      "outputs": [
        {
          "internalType": "string",
          "name": "",
          "type": "string"
        }
      ],
      "stateMutability": "view",
      "type": "function"
    },
    {
      "inputs": [
        {
          "internalType": "uint256",
          "name": "index",
          "type": "uint256"
        }
      ],
      "name": "tokenByIndex",
      "outputs": [
        {
          "internalType": "uint256",
          "name": "",
          "type": "uint256"
        }
      ],
      "stateMutability": "view",
      "type": "function"
    },
    {
      "inputs": [
        {
          "internalType": "address",
          "name": "owner",
          "type": "address"
        },
        {
          "internalType": "uint256",
          "name": "index",
          "type": "uint256"
        }
      ],
      "name": "tokenOfOwnerByIndex",
      "outputs": [
        {
          "internalType": "uint256",
          "name": "",
          "type": "uint256"
        }
      ],
      "stateMutability": "view",
      "type": "function"
    },
    {
      "inputs": [
        {
          "internalType": "uint256",
          "name": "tokenId",
          "type": "uint256"
        }
      ],
      "name": "tokenURI",
      "outputs": [
        {
          "internalType": "string",
          "name": "",
          "type": "string"
        }
      ],
      "stateMutability": "view",
      "type": "function"
    },
    {
      "inputs": [],
      "name": "totalSupply",
      "outputs": [
        {
          "internalType": "uint256",
          "name": "",
          "type": "uint256"
        }
      ],
      "stateMutability": "view",
      "type": "function"
    },
    {
      "inputs": [
        {
          "internalType": "address",
          "name": "from",
          "type": "address"
        },
        {
          "internalType": "address",
          "name": "to",
          "type": "address"
        },
        {
          "internalType": "uint256",
          "name": "tokenId",
          "type": "uint256"
        }
      ],
      "name": "transferFrom",
      "outputs": [],
      "stateMutability": "nonpayable",
      "type": "function"
    },
    {
      "inputs": [
        {
          "internalType": "address",
          "name": "_newOwner",
          "type": "address"
        }
      ],
      "name": "transferOwnerShip",
      "outputs": [],
      "stateMutability": "nonpayable",
      "type": "function"
    },
    {
      "inputs": [
        {
          "internalType": "address",
          "name": "",
          "type": "address"
        }
      ],
      "name": "userMints",
      "outputs": [
        {
          "internalType": "uint256",
          "name": "",
          "type": "uint256"
        }
      ],
      "stateMutability": "view",
      "type": "function"
    },
    {
      "inputs": [],
      "name": "whitelistOn",
      "outputs": [
        {
          "internalType": "bool",
          "name": "",
          "type": "bool"
        }
      ],
      "stateMutability": "view",
      "type": "function"
    },
    {
      "inputs": [
        {
          "internalType": "uint256",
          "name": "amount",
          "type": "uint256"
        }
      ],
      "name": "withdraw",
      "outputs": [],
      "stateMutability": "nonpayable",
      "type": "function"
    },
    {
      "stateMutability": "payable",
      "type": "receive"
    }
  ],
  "bytecode": "0x60c060405264e8d4a51000600c556000600d60006101000a81548160ff0219169083151502179055506000600d60016101000a81548160ff0219169083151502179055506001600d60026101000a81548160ff0219169083151502179055503480156200006b57600080fd5b5060405162004ae638038062004ae6833981810160405281019062000091919062000521565b81818160009081620000a49190620007f1565b508060019081620000b69190620007f1565b50505033600a60006101000a81548173ffffffffffffffffffffffffffffffffffffffff021916908373ffffffffffffffffffffffffffffffffffffffff16021790555061271061ffff1660808161ffff1681525050600460ff1660a08160ff168152505060405180606001604052806022815260200162004ac460229139600e9081620001459190620007f1565b5062000157336200015f60201b60201c565b505062000aa1565b600a60009054906101000a900473ffffffffffffffffffffffffffffffffffffffff1673ffffffffffffffffffffffffffffffffffffffff163373ffffffffffffffffffffffffffffffffffffffff1614620001f2576040517f08c379a0000000000000000000000000000000000000000000000000000000008152600401620001e99062000939565b60405180910390fd5b60001515600b60008373ffffffffffffffffffffffffffffffffffffffff1673ffffffffffffffffffffffffffffffffffffffff16815260200190815260200160002060009054906101000a900460ff1615151462000288576040517f08c379a00000000000000000000000000000000000000000000000000000000081526004016200027f90620009ab565b60405180910390fd5b600073ffffffffffffffffffffffffffffffffffffffff168173ffffffffffffffffffffffffffffffffffffffff1603620002fa576040517f08c379a0000000000000000000000000000000000000000000000000000000008152600401620002f19062000a1d565b60405180910390fd5b7f279c94c01b98e167fe96b446e8b43b516b667372fba92cf6e0853a1d25a0b6b7816040516200032b919062000a84565b60405180910390a16001600b60008373ffffffffffffffffffffffffffffffffffffffff1673ffffffffffffffffffffffffffffffffffffffff16815260200190815260200160002060006101000a81548160ff02191690831515021790555050565b6000604051905090565b600080fd5b600080fd5b600080fd5b600080fd5b6000601f19601f8301169050919050565b7f4e487b7100000000000000000000000000000000000000000000000000000000600052604160045260246000fd5b620003f782620003ac565b810181811067ffffffffffffffff82111715620004195762000418620003bd565b5b80604052505050565b60006200042e6200038e565b90506200043c8282620003ec565b919050565b600067ffffffffffffffff8211156200045f576200045e620003bd565b5b6200046a82620003ac565b9050602081019050919050565b60005b83811015620004975780820151818401526020810190506200047a565b60008484015250505050565b6000620004ba620004b48462000441565b62000422565b905082815260208101848484011115620004d957620004d8620003a7565b5b620004e684828562000477565b509392505050565b600082601f830112620005065762000505620003a2565b5b815162000518848260208601620004a3565b91505092915050565b600080604083850312156200053b576200053a62000398565b5b600083015167ffffffffffffffff8111156200055c576200055b6200039d565b5b6200056a85828601620004ee565b925050602083015167ffffffffffffffff8111156200058e576200058d6200039d565b5b6200059c85828601620004ee565b9150509250929050565b600081519050919050565b7f4e487b7100000000000000000000000000000000000000000000000000000000600052602260045260246000fd5b60006002820490506001821680620005f957607f821691505b6020821081036200060f576200060e620005b1565b5b50919050565b60008190508160005260206000209050919050565b60006020601f8301049050919050565b600082821b905092915050565b600060088302620006797fffffffffffffffffffffffffffffffffffffffffffffffffffffffffffffffff826200063a565b6200068586836200063a565b95508019841693508086168417925050509392505050565b6000819050919050565b6000819050919050565b6000620006d2620006cc620006c6846200069d565b620006a7565b6200069d565b9050919050565b6000819050919050565b620006ee83620006b1565b62000706620006fd82620006d9565b84845462000647565b825550505050565b600090565b6200071d6200070e565b6200072a818484620006e3565b505050565b5b8181101562000752576200074660008262000713565b60018101905062000730565b5050565b601f821115620007a1576200076b8162000615565b62000776846200062a565b8101602085101562000786578190505b6200079e62000795856200062a565b8301826200072f565b50505b505050565b600082821c905092915050565b6000620007c660001984600802620007a6565b1980831691505092915050565b6000620007e18383620007b3565b9150826002028217905092915050565b620007fc82620005a6565b67ffffffffffffffff811115620008185762000817620003bd565b5b620008248254620005e0565b6200083182828562000756565b600060209050601f83116001811462000869576000841562000854578287015190505b620008608582620007d3565b865550620008d0565b601f198416620008798662000615565b60005b82811015620008a3578489015182556001820191506020850194506020810190506200087c565b86831015620008c35784890151620008bf601f891682620007b3565b8355505b6001600288020188555050505b505050505050565b600082825260208201905092915050565b7f4e6f74206f776e65720000000000000000000000000000000000000000000000600082015250565b600062000921600983620008d8565b91506200092e82620008e9565b602082019050919050565b60006020820190508181036000830152620009548162000912565b9050919050565b7f416c72656164792061646d696e00000000000000000000000000000000000000600082015250565b600062000993600d83620008d8565b9150620009a0826200095b565b602082019050919050565b60006020820190508181036000830152620009c68162000984565b9050919050565b7f496e76616c6964206e65772061646d696e000000000000000000000000000000600082015250565b600062000a05601183620008d8565b915062000a1282620009cd565b602082019050919050565b6000602082019050818103600083015262000a3881620009f6565b9050919050565b600073ffffffffffffffffffffffffffffffffffffffff82169050919050565b600062000a6c8262000a3f565b9050919050565b62000a7e8162000a5f565b82525050565b600060208201905062000a9b600083018462000a73565b92915050565b60805160a051613fef62000ad5600039600081816118520152611db7015260008181610f250152611e1d0152613fef6000f3fe6080604052600436106102085760003560e01c80635183022711610118578063a0712d68116100a0578063c7ba75481161006f578063c7ba754814610765578063c87b56dd14610790578063df282331146107cd578063e43252d71461080a578063e985e9c5146108335761020f565b8063a0712d68146106e0578063a22cb465146106fc578063a475b5dd14610725578063b88d4fde1461073c5761020f565b806370480275116100e757806370480275146105fb57806370a08231146106245780638863dd1a146106615780638da5cb5b1461068a57806395d89b41146106b55761020f565b8063518302271461053d5780635c975abb146105685780636352211e146105935780636c0360eb146105d05761020f565b806324d7806c1161019b578063385df6491161016a578063385df649146104585780633af32abf1461046f57806342842e0e146104ac5780634917aa3f146104d55780634f6ccce7146105005761020f565b806324d7806c1461038a5780632e1a7d4d146103c75780632f745c59146103f057806332cb6b0c1461042d5761020f565b8063095ea7b3116101d7578063095ea7b3146102e45780631785f53c1461030d57806318160ddd1461033657806323b872dd146103615761020f565b806301ffc9a71461021457806306fdde0314610251578063081812fc1461027c5780630868790c146102b95761020f565b3661020f57005b600080fd5b34801561022057600080fd5b5061023b60048036038101906102369190612f70565b610870565b6040516102489190612fb8565b60405180910390f35b34801561025d57600080fd5b506102666108ea565b6040516102739190613063565b60405180910390f35b34801561028857600080fd5b506102a3600480360381019061029e91906130bb565b61097c565b6040516102b09190613129565b60405180910390f35b3480156102c557600080fd5b506102ce610998565b6040516102db9190613153565b60405180910390f35b3480156102f057600080fd5b5061030b6004803603810190610306919061319a565b61099e565b005b34801561031957600080fd5b50610334600480360381019061032f91906131da565b6109b4565b005b34801561034257600080fd5b5061034b610ba0565b6040516103589190613153565b60405180910390f35b34801561036d57600080fd5b5061038860048036038101906103839190613207565b610bad565b005b34801561039657600080fd5b506103b160048036038101906103ac91906131da565b610caf565b6040516103be9190612fb8565b60405180910390f35b3480156103d357600080fd5b506103ee60048036038101906103e991906130bb565b610ccf565b005b3480156103fc57600080fd5b506104176004803603810190610412919061319a565b610e7a565b6040516104249190613153565b60405180910390f35b34801561043957600080fd5b50610442610f23565b60405161044f9190613277565b60405180910390f35b34801561046457600080fd5b5061046d610f47565b005b34801561047b57600080fd5b50610496600480360381019061049191906131da565b611006565b6040516104a39190612fb8565b60405180910390f35b3480156104b857600080fd5b506104d360048036038101906104ce9190613207565b611026565b005b3480156104e157600080fd5b506104ea611046565b6040516104f79190612fb8565b60405180910390f35b34801561050c57600080fd5b50610527600480360381019061052291906130bb565b611059565b6040516105349190613153565b60405180910390f35b34801561054957600080fd5b506105526110cf565b60405161055f9190612fb8565b60405180910390f35b34801561057457600080fd5b5061057d6110e2565b60405161058a9190612fb8565b60405180910390f35b34801561059f57600080fd5b506105ba60048036038101906105b591906130bb565b6110f5565b6040516105c79190613129565b60405180910390f35b3480156105dc57600080fd5b506105e5611107565b6040516105f29190613063565b60405180910390f35b34801561060757600080fd5b50610622600480360381019061061d91906131da565b611195565b005b34801561063057600080fd5b5061064b600480360381019061064691906131da565b6113b9565b6040516106589190613153565b60405180910390f35b34801561066d57600080fd5b50610688600480360381019061068391906131da565b611473565b005b34801561069657600080fd5b5061069f6115ed565b6040516106ac9190613129565b60405180910390f35b3480156106c157600080fd5b506106ca611613565b6040516106d79190613063565b60405180910390f35b6106fa60048036038101906106f591906130bb565b6116a5565b005b34801561070857600080fd5b50610723600480360381019061071e91906132be565b61176d565b005b34801561073157600080fd5b5061073a611783565b005b34801561074857600080fd5b50610763600480360381019061075e9190613433565b611833565b005b34801561077157600080fd5b5061077a611850565b60405161078791906134d2565b60405180910390f35b34801561079c57600080fd5b506107b760048036038101906107b291906130bb565b611874565b6040516107c49190613063565b60405180910390f35b3480156107d957600080fd5b506107f460048036038101906107ef91906131da565b6118fa565b6040516108019190613153565b60405180910390f35b34801561081657600080fd5b50610831600480360381019061082c91906131da565b611912565b005b34801561083f57600080fd5b5061085a600480360381019061085591906134ed565b611a00565b6040516108679190612fb8565b60405180910390f35b60007f780e9d63000000000000000000000000000000000000000000000000000000007bffffffffffffffffffffffffffffffffffffffffffffffffffffffff1916827bffffffffffffffffffffffffffffffffffffffffffffffffffffffff191614806108e357506108e282611a94565b5b9050919050565b6060600080546108f99061355c565b80601f01602080910402602001604051908101604052809291908181526020018280546109259061355c565b80156109725780601f1061094757610100808354040283529160200191610972565b820191906000526020600020905b81548152906001019060200180831161095557829003601f168201915b5050505050905090565b600061098782611b76565b5061099182611bfe565b9050919050565b600c5481565b6109b082826109ab611c3b565b611c43565b5050565b600a60009054906101000a900473ffffffffffffffffffffffffffffffffffffffff1673ffffffffffffffffffffffffffffffffffffffff163373ffffffffffffffffffffffffffffffffffffffff1614610a44576040517f08c379a0000000000000000000000000000000000000000000000000000000008152600401610a3b906135d9565b60405180910390fd5b60011515600b60008373ffffffffffffffffffffffffffffffffffffffff1673ffffffffffffffffffffffffffffffffffffffff16815260200190815260200160002060009054906101000a900460ff16151514610ad7576040517f08c379a0000000000000000000000000000000000000000000000000000000008152600401610ace90613645565b60405180910390fd5b3373ffffffffffffffffffffffffffffffffffffffff168173ffffffffffffffffffffffffffffffffffffffff1603610b45576040517f08c379a0000000000000000000000000000000000000000000000000000000008152600401610b3c906136b1565b60405180910390fd5b6000600b60008373ffffffffffffffffffffffffffffffffffffffff1673ffffffffffffffffffffffffffffffffffffffff16815260200190815260200160002060006101000a81548160ff02191690831515021790555050565b6000600880549050905090565b600073ffffffffffffffffffffffffffffffffffffffff168273ffffffffffffffffffffffffffffffffffffffff1603610c1f5760006040517f64a0ae92000000000000000000000000000000000000000000000000000000008152600401610c169190613129565b60405180910390fd5b6000610c338383610c2e611c3b565b611c55565b90508373ffffffffffffffffffffffffffffffffffffffff168173ffffffffffffffffffffffffffffffffffffffff1614610ca9578382826040517f64283d7b000000000000000000000000000000000000000000000000000000008152600401610ca0939291906136d1565b60405180910390fd5b50505050565b600b6020528060005260406000206000915054906101000a900460ff1681565b600a60009054906101000a900473ffffffffffffffffffffffffffffffffffffffff1673ffffffffffffffffffffffffffffffffffffffff163373ffffffffffffffffffffffffffffffffffffffff1614610d5f576040517f08c379a0000000000000000000000000000000000000000000000000000000008152600401610d56906135d9565b60405180910390fd5b478110610da1576040517f08c379a0000000000000000000000000000000000000000000000000000000008152600401610d989061377a565b60405180910390fd5b6000600a60009054906101000a900473ffffffffffffffffffffffffffffffffffffffff1673ffffffffffffffffffffffffffffffffffffffff1682604051610de9906137cb565b60006040518083038185875af1925050503d8060008114610e26576040519150601f19603f3d011682016040523d82523d6000602084013e610e2b565b606091505b505090506001151581151514610e76576040517f08c379a0000000000000000000000000000000000000000000000000000000008152600401610e6d9061382c565b60405180910390fd5b5050565b6000610e85836113b9565b8210610eca5782826040517fa57d13dc000000000000000000000000000000000000000000000000000000008152600401610ec192919061384c565b60405180910390fd5b600660008473ffffffffffffffffffffffffffffffffffffffff1673ffffffffffffffffffffffffffffffffffffffff168152602001908152602001600020600083815260200190815260200160002054905092915050565b7f000000000000000000000000000000000000000000000000000000000000000081565b60011515600b60003373ffffffffffffffffffffffffffffffffffffffff1673ffffffffffffffffffffffffffffffffffffffff16815260200190815260200160002060009054906101000a900460ff16151514610fda576040517f08c379a0000000000000000000000000000000000000000000000000000000008152600401610fd190613645565b60405180910390fd5b600d60019054906101000a900460ff1615600d60016101000a81548160ff021916908315150217905550565b600f6020528060005260406000206000915054906101000a900460ff1681565b61104183838360405180602001604052806000815250611833565b505050565b600d60009054906101000a900460ff1681565b6000611063610ba0565b82106110a9576000826040517fa57d13dc0000000000000000000000000000000000000000000000000000000081526004016110a092919061384c565b60405180910390fd5b600882815481106110bd576110bc613875565b5b90600052602060002001549050919050565b600d60029054906101000a900460ff1681565b600d60019054906101000a900460ff1681565b600061110082611b76565b9050919050565b600e80546111149061355c565b80601f01602080910402602001604051908101604052809291908181526020018280546111409061355c565b801561118d5780601f106111625761010080835404028352916020019161118d565b820191906000526020600020905b81548152906001019060200180831161117057829003601f168201915b505050505081565b600a60009054906101000a900473ffffffffffffffffffffffffffffffffffffffff1673ffffffffffffffffffffffffffffffffffffffff163373ffffffffffffffffffffffffffffffffffffffff1614611225576040517f08c379a000000000000000000000000000000000000000000000000000000000815260040161121c906135d9565b60405180910390fd5b60001515600b60008373ffffffffffffffffffffffffffffffffffffffff1673ffffffffffffffffffffffffffffffffffffffff16815260200190815260200160002060009054906101000a900460ff161515146112b8576040517f08c379a00000000000000000000000000000000000000000000000000000000081526004016112af906138f0565b60405180910390fd5b600073ffffffffffffffffffffffffffffffffffffffff168173ffffffffffffffffffffffffffffffffffffffff1603611327576040517f08c379a000000000000000000000000000000000000000000000000000000000815260040161131e9061395c565b60405180910390fd5b7f279c94c01b98e167fe96b446e8b43b516b667372fba92cf6e0853a1d25a0b6b7816040516113569190613129565b60405180910390a16001600b60008373ffffffffffffffffffffffffffffffffffffffff1673ffffffffffffffffffffffffffffffffffffffff16815260200190815260200160002060006101000a81548160ff02191690831515021790555050565b60008073ffffffffffffffffffffffffffffffffffffffff168273ffffffffffffffffffffffffffffffffffffffff160361142c5760006040517f89c62b640000000000000000000000000000000000000000000000000000000081526004016114239190613129565b60405180910390fd5b600360008373ffffffffffffffffffffffffffffffffffffffff1673ffffffffffffffffffffffffffffffffffffffff168152602001908152602001600020549050919050565b600a60009054906101000a900473ffffffffffffffffffffffffffffffffffffffff1673ffffffffffffffffffffffffffffffffffffffff163373ffffffffffffffffffffffffffffffffffffffff1614611503576040517f08c379a00000000000000000000000000000000000000000000000000000000081526004016114fa906135d9565b60405180910390fd5b600073ffffffffffffffffffffffffffffffffffffffff168173ffffffffffffffffffffffffffffffffffffffff1603611572576040517f08c379a0000000000000000000000000000000000000000000000000000000008152600401611569906139c8565b60405180910390fd5b7fdcc4c02a95b0e3a174f5b0c3614753b745e0d538a4ea80ada39e06fea54f9184816040516115a19190613129565b60405180910390a180600a60006101000a81548173ffffffffffffffffffffffffffffffffffffffff021916908373ffffffffffffffffffffffffffffffffffffffff16021790555050565b600a60009054906101000a900473ffffffffffffffffffffffffffffffffffffffff1681565b6060600180546116229061355c565b80601f016020809104026020016040519081016040528092919081815260200182805461164e9061355c565b801561169b5780601f106116705761010080835404028352916020019161169b565b820191906000526020600020905b81548152906001019060200180831161167e57829003601f168201915b5050505050905090565b600d60009054906101000a900460ff161561174757600f60003373ffffffffffffffffffffffffffffffffffffffff1673ffffffffffffffffffffffffffffffffffffffff16815260200190815260200160002060009054906101000a900460ff16611746576040517f08c379a000000000000000000000000000000000000000000000000000000000815260040161173d90613a34565b60405180910390fd5b5b600c54816117559190613a83565b34101561176157600080fd5b61176a81611d72565b50565b61177f611778611c3b565b8383611f79565b5050565b60011515600b60003373ffffffffffffffffffffffffffffffffffffffff1673ffffffffffffffffffffffffffffffffffffffff16815260200190815260200160002060009054906101000a900460ff16151514611816576040517f08c379a000000000000000000000000000000000000000000000000000000000815260040161180d90613645565b60405180910390fd5b6001600d60026101000a81548160ff021916908315150217905550565b61183e848484610bad565b61184a848484846120e8565b50505050565b7f000000000000000000000000000000000000000000000000000000000000000081565b6060600d60029054906101000a900460ff166118c7576040518060400160405280600d81526020017f4e6f7420726576656c617465640000000000000000000000000000000000000081525090506118f5565b600e6118d28361229f565b6040516020016118e3929190613be5565b60405160208183030381529060405290505b919050565b60106020528060005260406000206000915090505481565b60011515600b60003373ffffffffffffffffffffffffffffffffffffffff1673ffffffffffffffffffffffffffffffffffffffff16815260200190815260200160002060009054906101000a900460ff161515146119a5576040517f08c379a000000000000000000000000000000000000000000000000000000000815260040161199c90613645565b60405180910390fd5b6001600f60008373ffffffffffffffffffffffffffffffffffffffff1673ffffffffffffffffffffffffffffffffffffffff16815260200190815260200160002060006101000a81548160ff02191690831515021790555050565b6000600560008473ffffffffffffffffffffffffffffffffffffffff1673ffffffffffffffffffffffffffffffffffffffff16815260200190815260200160002060008373ffffffffffffffffffffffffffffffffffffffff1673ffffffffffffffffffffffffffffffffffffffff16815260200190815260200160002060009054906101000a900460ff16905092915050565b60007f80ac58cd000000000000000000000000000000000000000000000000000000007bffffffffffffffffffffffffffffffffffffffffffffffffffffffff1916827bffffffffffffffffffffffffffffffffffffffffffffffffffffffff19161480611b5f57507f5b5e139f000000000000000000000000000000000000000000000000000000007bffffffffffffffffffffffffffffffffffffffffffffffffffffffff1916827bffffffffffffffffffffffffffffffffffffffffffffffffffffffff1916145b80611b6f5750611b6e8261236d565b5b9050919050565b600080611b82836123d7565b9050600073ffffffffffffffffffffffffffffffffffffffff168173ffffffffffffffffffffffffffffffffffffffff1603611bf557826040517f7e273289000000000000000000000000000000000000000000000000000000008152600401611bec9190613153565b60405180910390fd5b80915050919050565b60006004600083815260200190815260200160002060009054906101000a900473ffffffffffffffffffffffffffffffffffffffff169050919050565b600033905090565b611c508383836001612414565b505050565b600080611c638585856125d9565b9050600073ffffffffffffffffffffffffffffffffffffffff168173ffffffffffffffffffffffffffffffffffffffff1603611ca757611ca2846127f3565b611ce6565b8473ffffffffffffffffffffffffffffffffffffffff168173ffffffffffffffffffffffffffffffffffffffff1614611ce557611ce4818561283c565b5b5b600073ffffffffffffffffffffffffffffffffffffffff168573ffffffffffffffffffffffffffffffffffffffff1603611d2857611d238461299d565b611d67565b8473ffffffffffffffffffffffffffffffffffffffff168173ffffffffffffffffffffffffffffffffffffffff1614611d6657611d658585612a6e565b5b5b809150509392505050565b60008111611db5576040517f08c379a0000000000000000000000000000000000000000000000000000000008152600401611dac90613c60565b60405180910390fd5b7f000000000000000000000000000000000000000000000000000000000000000060ff16811115611e1b576040517f08c379a0000000000000000000000000000000000000000000000000000000008152600401611e1290613cf2565b60405180910390fd5b7f000000000000000000000000000000000000000000000000000000000000000061ffff1681611e49610ba0565b611e539190613d12565b1115611e94576040517f08c379a0000000000000000000000000000000000000000000000000000000008152600401611e8b90613db8565b60405180910390fd5b600d60019054906101000a900460ff1615611ee4576040517f08c379a0000000000000000000000000000000000000000000000000000000008152600401611edb90613e24565b60405180910390fd5b80601060003373ffffffffffffffffffffffffffffffffffffffff1673ffffffffffffffffffffffffffffffffffffffff1681526020019081526020016000206000828254611f339190613d12565b925050819055506000611f44610ba0565b90506000600190505b828111611f7457611f69338284611f649190613d12565b612af9565b806001019050611f4d565b505050565b600073ffffffffffffffffffffffffffffffffffffffff168273ffffffffffffffffffffffffffffffffffffffff1603611fea57816040517f5b08ba18000000000000000000000000000000000000000000000000000000008152600401611fe19190613129565b60405180910390fd5b80600560008573ffffffffffffffffffffffffffffffffffffffff1673ffffffffffffffffffffffffffffffffffffffff16815260200190815260200160002060008473ffffffffffffffffffffffffffffffffffffffff1673ffffffffffffffffffffffffffffffffffffffff16815260200190815260200160002060006101000a81548160ff0219169083151502179055508173ffffffffffffffffffffffffffffffffffffffff168373ffffffffffffffffffffffffffffffffffffffff167f17307eab39ab6107e8899845ad3d59bd9653f200f220920489ca2b5937696c31836040516120db9190612fb8565b60405180910390a3505050565b60008373ffffffffffffffffffffffffffffffffffffffff163b1115612299578273ffffffffffffffffffffffffffffffffffffffff1663150b7a0261212c611c3b565b8685856040518563ffffffff1660e01b815260040161214e9493929190613e99565b6020604051808303816000875af192505050801561218a57506040513d601f19601f820116820180604052508101906121879190613efa565b60015b61220e573d80600081146121ba576040519150601f19603f3d011682016040523d82523d6000602084013e6121bf565b606091505b50600081510361220657836040517f64a0ae920000000000000000000000000000000000000000000000000000000081526004016121fd9190613129565b60405180910390fd5b805181602001fd5b63150b7a0260e01b7bffffffffffffffffffffffffffffffffffffffffffffffffffffffff1916817bffffffffffffffffffffffffffffffffffffffffffffffffffffffff19161461229757836040517f64a0ae9200000000000000000000000000000000000000000000000000000000815260040161228e9190613129565b60405180910390fd5b505b50505050565b6060600060016122ae84612b17565b01905060008167ffffffffffffffff8111156122cd576122cc613308565b5b6040519080825280601f01601f1916602001820160405280156122ff5781602001600182028036833780820191505090505b509050600082602001820190505b600115612362578080600190039150507f3031323334353637383961626364656600000000000000000000000000000000600a86061a8153600a858161235657612355613f27565b5b0494506000850361230d575b819350505050919050565b60007f01ffc9a7000000000000000000000000000000000000000000000000000000007bffffffffffffffffffffffffffffffffffffffffffffffffffffffff1916827bffffffffffffffffffffffffffffffffffffffffffffffffffffffff1916149050919050565b60006002600083815260200190815260200160002060009054906101000a900473ffffffffffffffffffffffffffffffffffffffff169050919050565b808061244d5750600073ffffffffffffffffffffffffffffffffffffffff168273ffffffffffffffffffffffffffffffffffffffff1614155b1561258157600061245d84611b76565b9050600073ffffffffffffffffffffffffffffffffffffffff168373ffffffffffffffffffffffffffffffffffffffff16141580156124c857508273ffffffffffffffffffffffffffffffffffffffff168173ffffffffffffffffffffffffffffffffffffffff1614155b80156124db57506124d98184611a00565b155b1561251d57826040517fa9fbf51f0000000000000000000000000000000000000000000000000000000081526004016125149190613129565b60405180910390fd5b811561257f57838573ffffffffffffffffffffffffffffffffffffffff168273ffffffffffffffffffffffffffffffffffffffff167f8c5be1e5ebec7d5bd14f71427d1e84f3dd0314c0f7b2291e5b200ac8c7c3b92560405160405180910390a45b505b836004600085815260200190815260200160002060006101000a81548173ffffffffffffffffffffffffffffffffffffffff021916908373ffffffffffffffffffffffffffffffffffffffff16021790555050505050565b6000806125e5846123d7565b9050600073ffffffffffffffffffffffffffffffffffffffff168373ffffffffffffffffffffffffffffffffffffffff161461262757612626818486612c6a565b5b600073ffffffffffffffffffffffffffffffffffffffff168173ffffffffffffffffffffffffffffffffffffffff16146126b857612669600085600080612414565b6001600360008373ffffffffffffffffffffffffffffffffffffffff1673ffffffffffffffffffffffffffffffffffffffff168152602001908152602001600020600082825403925050819055505b600073ffffffffffffffffffffffffffffffffffffffff168573ffffffffffffffffffffffffffffffffffffffff161461273b576001600360008773ffffffffffffffffffffffffffffffffffffffff1673ffffffffffffffffffffffffffffffffffffffff168152602001908152602001600020600082825401925050819055505b846002600086815260200190815260200160002060006101000a81548173ffffffffffffffffffffffffffffffffffffffff021916908373ffffffffffffffffffffffffffffffffffffffff160217905550838573ffffffffffffffffffffffffffffffffffffffff168273ffffffffffffffffffffffffffffffffffffffff167fddf252ad1be2c89b69c2b068fc378daa952ba7f163c4a11628f55a4df523b3ef60405160405180910390a4809150509392505050565b6008805490506009600083815260200190815260200160002081905550600881908060018154018082558091505060019003906000526020600020016000909190919091505550565b6000612847836113b9565b905060006007600084815260200190815260200160002054905081811461292c576000600660008673ffffffffffffffffffffffffffffffffffffffff1673ffffffffffffffffffffffffffffffffffffffff168152602001908152602001600020600084815260200190815260200160002054905080600660008773ffffffffffffffffffffffffffffffffffffffff1673ffffffffffffffffffffffffffffffffffffffff168152602001908152602001600020600084815260200190815260200160002081905550816007600083815260200190815260200160002081905550505b6007600084815260200190815260200160002060009055600660008573ffffffffffffffffffffffffffffffffffffffff1673ffffffffffffffffffffffffffffffffffffffff16815260200190815260200160002060008381526020019081526020016000206000905550505050565b600060016008805490506129b19190613f56565b90506000600960008481526020019081526020016000205490506000600883815481106129e1576129e0613875565b5b906000526020600020015490508060088381548110612a0357612a02613875565b5b906000526020600020018190555081600960008381526020019081526020016000208190555060096000858152602001908152602001600020600090556008805480612a5257612a51613f8a565b5b6001900381819060005260206000200160009055905550505050565b60006001612a7b846113b9565b612a859190613f56565b905081600660008573ffffffffffffffffffffffffffffffffffffffff1673ffffffffffffffffffffffffffffffffffffffff168152602001908152602001600020600083815260200190815260200160002081905550806007600084815260200190815260200160002081905550505050565b612b13828260405180602001604052806000815250612d2e565b5050565b600080600090507a184f03e93ff9f4daa797ed6e38ed64bf6a1f0100000000000000008310612b75577a184f03e93ff9f4daa797ed6e38ed64bf6a1f0100000000000000008381612b6b57612b6a613f27565b5b0492506040810190505b6d04ee2d6d415b85acef81000000008310612bb2576d04ee2d6d415b85acef81000000008381612ba857612ba7613f27565b5b0492506020810190505b662386f26fc100008310612be157662386f26fc100008381612bd757612bd6613f27565b5b0492506010810190505b6305f5e1008310612c0a576305f5e1008381612c0057612bff613f27565b5b0492506008810190505b6127108310612c2f576127108381612c2557612c24613f27565b5b0492506004810190505b60648310612c525760648381612c4857612c47613f27565b5b0492506002810190505b600a8310612c61576001810190505b80915050919050565b612c75838383612d4a565b612d2957600073ffffffffffffffffffffffffffffffffffffffff168373ffffffffffffffffffffffffffffffffffffffff1603612cea57806040517f7e273289000000000000000000000000000000000000000000000000000000008152600401612ce19190613153565b60405180910390fd5b81816040517f177e802f000000000000000000000000000000000000000000000000000000008152600401612d2092919061384c565b60405180910390fd5b505050565b612d388383612e0b565b612d4560008484846120e8565b505050565b60008073ffffffffffffffffffffffffffffffffffffffff168373ffffffffffffffffffffffffffffffffffffffff1614158015612e0257508273ffffffffffffffffffffffffffffffffffffffff168473ffffffffffffffffffffffffffffffffffffffff161480612dc35750612dc28484611a00565b5b80612e0157508273ffffffffffffffffffffffffffffffffffffffff16612de983611bfe565b73ffffffffffffffffffffffffffffffffffffffff16145b5b90509392505050565b600073ffffffffffffffffffffffffffffffffffffffff168273ffffffffffffffffffffffffffffffffffffffff1603612e7d5760006040517f64a0ae92000000000000000000000000000000000000000000000000000000008152600401612e749190613129565b60405180910390fd5b6000612e8b83836000611c55565b9050600073ffffffffffffffffffffffffffffffffffffffff168173ffffffffffffffffffffffffffffffffffffffff1614612eff5760006040517f73c6ac6e000000000000000000000000000000000000000000000000000000008152600401612ef69190613129565b60405180910390fd5b505050565b6000604051905090565b600080fd5b600080fd5b60007fffffffff0000000000000000000000000000000000000000000000000000000082169050919050565b612f4d81612f18565b8114612f5857600080fd5b50565b600081359050612f6a81612f44565b92915050565b600060208284031215612f8657612f85612f0e565b5b6000612f9484828501612f5b565b91505092915050565b60008115159050919050565b612fb281612f9d565b82525050565b6000602082019050612fcd6000830184612fa9565b92915050565b600081519050919050565b600082825260208201905092915050565b60005b8381101561300d578082015181840152602081019050612ff2565b60008484015250505050565b6000601f19601f8301169050919050565b600061303582612fd3565b61303f8185612fde565b935061304f818560208601612fef565b61305881613019565b840191505092915050565b6000602082019050818103600083015261307d818461302a565b905092915050565b6000819050919050565b61309881613085565b81146130a357600080fd5b50565b6000813590506130b58161308f565b92915050565b6000602082840312156130d1576130d0612f0e565b5b60006130df848285016130a6565b91505092915050565b600073ffffffffffffffffffffffffffffffffffffffff82169050919050565b6000613113826130e8565b9050919050565b61312381613108565b82525050565b600060208201905061313e600083018461311a565b92915050565b61314d81613085565b82525050565b60006020820190506131686000830184613144565b92915050565b61317781613108565b811461318257600080fd5b50565b6000813590506131948161316e565b92915050565b600080604083850312156131b1576131b0612f0e565b5b60006131bf85828601613185565b92505060206131d0858286016130a6565b9150509250929050565b6000602082840312156131f0576131ef612f0e565b5b60006131fe84828501613185565b91505092915050565b6000806000606084860312156132205761321f612f0e565b5b600061322e86828701613185565b935050602061323f86828701613185565b9250506040613250868287016130a6565b9150509250925092565b600061ffff82169050919050565b6132718161325a565b82525050565b600060208201905061328c6000830184613268565b92915050565b61329b81612f9d565b81146132a657600080fd5b50565b6000813590506132b881613292565b92915050565b600080604083850312156132d5576132d4612f0e565b5b60006132e385828601613185565b92505060206132f4858286016132a9565b9150509250929050565b600080fd5b600080fd5b7f4e487b7100000000000000000000000000000000000000000000000000000000600052604160045260246000fd5b61334082613019565b810181811067ffffffffffffffff8211171561335f5761335e613308565b5b80604052505050565b6000613372612f04565b905061337e8282613337565b919050565b600067ffffffffffffffff82111561339e5761339d613308565b5b6133a782613019565b9050602081019050919050565b82818337600083830152505050565b60006133d66133d184613383565b613368565b9050828152602081018484840111156133f2576133f1613303565b5b6133fd8482856133b4565b509392505050565b600082601f83011261341a576134196132fe565b5b813561342a8482602086016133c3565b91505092915050565b6000806000806080858703121561344d5761344c612f0e565b5b600061345b87828801613185565b945050602061346c87828801613185565b935050604061347d878288016130a6565b925050606085013567ffffffffffffffff81111561349e5761349d612f13565b5b6134aa87828801613405565b91505092959194509250565b600060ff82169050919050565b6134cc816134b6565b82525050565b60006020820190506134e760008301846134c3565b92915050565b6000806040838503121561350457613503612f0e565b5b600061351285828601613185565b925050602061352385828601613185565b9150509250929050565b7f4e487b7100000000000000000000000000000000000000000000000000000000600052602260045260246000fd5b6000600282049050600182168061357457607f821691505b6020821081036135875761358661352d565b5b50919050565b7f4e6f74206f776e65720000000000000000000000000000000000000000000000600082015250565b60006135c3600983612fde565b91506135ce8261358d565b602082019050919050565b600060208201905081810360008301526135f2816135b6565b9050919050565b7f4e6f742061646d696e0000000000000000000000000000000000000000000000600082015250565b600061362f600983612fde565b915061363a826135f9565b602082019050919050565b6000602082019050818103600083015261365e81613622565b9050919050565b7f43616e6e6f742072656d6f766520796f757273656c6600000000000000000000600082015250565b600061369b601683612fde565b91506136a682613665565b602082019050919050565b600060208201905081810360008301526136ca8161368e565b9050919050565b60006060820190506136e6600083018661311a565b6136f36020830185613144565b613700604083018461311a565b949350505050565b7f5468657265206973206e6f7420736f206d75636820616d6f756e7420696e207360008201527f6d61727420636f6e747261637400000000000000000000000000000000000000602082015250565b6000613764602d83612fde565b915061376f82613708565b604082019050919050565b6000602082019050818103600083015261379381613757565b9050919050565b600081905092915050565b50565b60006137b560008361379a565b91506137c0826137a5565b600082019050919050565b60006137d6826137a8565b9150819050919050565b7f5472616e73616374696f6e206661696c65640000000000000000000000000000600082015250565b6000613816601283612fde565b9150613821826137e0565b602082019050919050565b6000602082019050818103600083015261384581613809565b9050919050565b6000604082019050613861600083018561311a565b61386e6020830184613144565b9392505050565b7f4e487b7100000000000000000000000000000000000000000000000000000000600052603260045260246000fd5b7f416c72656164792061646d696e00000000000000000000000000000000000000600082015250565b60006138da600d83612fde565b91506138e5826138a4565b602082019050919050565b60006020820190508181036000830152613909816138cd565b9050919050565b7f496e76616c6964206e65772061646d696e000000000000000000000000000000600082015250565b6000613946601183612fde565b915061395182613910565b602082019050919050565b6000602082019050818103600083015261397581613939565b9050919050565b7f496e76616c6964206e6577206f776e6572000000000000000000000000000000600082015250565b60006139b2601183612fde565b91506139bd8261397c565b602082019050919050565b600060208201905081810360008301526139e1816139a5565b9050919050565b7f55736572206e6f742077686974656c6973746564000000000000000000000000600082015250565b6000613a1e601483612fde565b9150613a29826139e8565b602082019050919050565b60006020820190508181036000830152613a4d81613a11565b9050919050565b7f4e487b7100000000000000000000000000000000000000000000000000000000600052601160045260246000fd5b6000613a8e82613085565b9150613a9983613085565b9250828202613aa781613085565b91508282048414831517613abe57613abd613a54565b5b5092915050565b600081905092915050565b60008190508160005260206000209050919050565b60008154613af28161355c565b613afc8186613ac5565b94506001821660008114613b175760018114613b2c57613b5f565b60ff1983168652811515820286019350613b5f565b613b3585613ad0565b60005b83811015613b5757815481890152600182019150602081019050613b38565b838801955050505b50505092915050565b6000613b7382612fd3565b613b7d8185613ac5565b9350613b8d818560208601612fef565b80840191505092915050565b7f2e6a736f6e000000000000000000000000000000000000000000000000000000600082015250565b6000613bcf600583613ac5565b9150613bda82613b99565b600582019050919050565b6000613bf18285613ae5565b9150613bfd8284613b68565b9150613c0882613bc2565b91508190509392505050565b7f416d6f756e74206d7573742062652067726561746572207468616e2027302700600082015250565b6000613c4a601f83612fde565b9150613c5582613c14565b602082019050919050565b60006020820190508181036000830152613c7981613c3d565b9050919050565b7f416d6f756e74206d757374206265206c657373207468616e204d41585f50455260008201527f5f55534552202736270000000000000000000000000000000000000000000000602082015250565b6000613cdc602983612fde565b9150613ce782613c80565b604082019050919050565b60006020820190508181036000830152613d0b81613ccf565b9050919050565b6000613d1d82613085565b9150613d2883613085565b9250828201905080821115613d4057613d3f613a54565b5b92915050565b7f416c6c204e465473206861766520616c7265616479206265656e206d696e746560008201527f6400000000000000000000000000000000000000000000000000000000000000602082015250565b6000613da2602183612fde565b9150613dad82613d46565b604082019050919050565b60006020820190508181036000830152613dd181613d95565b9050919050565b7f436f6e7472616374206973207061757365640000000000000000000000000000600082015250565b6000613e0e601283612fde565b9150613e1982613dd8565b602082019050919050565b60006020820190508181036000830152613e3d81613e01565b9050919050565b600081519050919050565b600082825260208201905092915050565b6000613e6b82613e44565b613e758185613e4f565b9350613e85818560208601612fef565b613e8e81613019565b840191505092915050565b6000608082019050613eae600083018761311a565b613ebb602083018661311a565b613ec86040830185613144565b8181036060830152613eda8184613e60565b905095945050505050565b600081519050613ef481612f44565b92915050565b600060208284031215613f1057613f0f612f0e565b5b6000613f1e84828501613ee5565b91505092915050565b7f4e487b7100000000000000000000000000000000000000000000000000000000600052601260045260246000fd5b6000613f6182613085565b9150613f6c83613085565b9250828203905081811115613f8457613f83613a54565b5b92915050565b7f4e487b7100000000000000000000000000000000000000000000000000000000600052603160045260246000fdfea26469706673582212207ed1b12ed97c4cd10a0829eb5cd459c39f3e8a59f6fa7e8839ca7922017c5d4564736f6c6343000818003368747470733a2f2f6170696e66742e7261636b736d616669612e636f6d2f6170692f",
  "linkReferences": {},
  "deployedLinkReferences": {}
}